{
  "_format": "hh-sol-artifact-1",
  "contractName": "ECOtoken",
  "sourceName": "contracts/Token.sol",
  "abi": [
    {
      "inputs": [],
      "stateMutability": "nonpayable",
      "type": "constructor"
    },
    {
      "anonymous": false,
      "inputs": [
        {
          "indexed": true,
          "internalType": "address",
          "name": "owner",
          "type": "address"
        },
        {
          "indexed": true,
          "internalType": "address",
          "name": "spender",
          "type": "address"
        },
        {
          "indexed": false,
          "internalType": "uint256",
          "name": "value",
          "type": "uint256"
        }
      ],
      "name": "Approval",
      "type": "event"
    },
    {
      "anonymous": false,
      "inputs": [
        {
          "indexed": true,
          "internalType": "address",
          "name": "previousOwner",
          "type": "address"
        },
        {
          "indexed": true,
          "internalType": "address",
          "name": "newOwner",
          "type": "address"
        }
      ],
      "name": "OwnershipTransferred",
      "type": "event"
    },
    {
      "anonymous": false,
      "inputs": [
        {
          "indexed": true,
          "internalType": "address",
          "name": "from",
          "type": "address"
        },
        {
          "indexed": true,
          "internalType": "address",
          "name": "to",
          "type": "address"
        },
        {
          "indexed": false,
          "internalType": "uint256",
          "name": "value",
          "type": "uint256"
        }
      ],
      "name": "Transfer",
      "type": "event"
    },
    {
      "inputs": [
        {
          "internalType": "address",
          "name": "owner",
          "type": "address"
        },
        {
          "internalType": "address",
          "name": "spender",
          "type": "address"
        }
      ],
      "name": "allowance",
      "outputs": [
        {
          "internalType": "uint256",
          "name": "",
          "type": "uint256"
        }
      ],
      "stateMutability": "view",
      "type": "function"
    },
    {
      "inputs": [
        {
          "internalType": "address",
          "name": "spender",
          "type": "address"
        },
        {
          "internalType": "uint256",
          "name": "amount",
          "type": "uint256"
        }
      ],
      "name": "approve",
      "outputs": [
        {
          "internalType": "bool",
          "name": "",
          "type": "bool"
        }
      ],
      "stateMutability": "nonpayable",
      "type": "function"
    },
    {
      "inputs": [
        {
          "internalType": "address",
          "name": "account",
          "type": "address"
        }
      ],
      "name": "balanceOf",
      "outputs": [
        {
          "internalType": "uint256",
          "name": "",
          "type": "uint256"
        }
      ],
      "stateMutability": "view",
      "type": "function"
    },
    {
      "inputs": [
        {
          "internalType": "uint256",
          "name": "amount",
          "type": "uint256"
        }
      ],
      "name": "burn",
      "outputs": [],
      "stateMutability": "nonpayable",
      "type": "function"
    },
    {
      "inputs": [
        {
          "internalType": "address",
          "name": "account",
          "type": "address"
        },
        {
          "internalType": "uint256",
          "name": "amount",
          "type": "uint256"
        }
      ],
      "name": "burnFrom",
      "outputs": [],
      "stateMutability": "nonpayable",
      "type": "function"
    },
    {
      "inputs": [],
      "name": "decimals",
      "outputs": [
        {
          "internalType": "uint8",
          "name": "",
          "type": "uint8"
        }
      ],
      "stateMutability": "view",
      "type": "function"
    },
    {
      "inputs": [
        {
          "internalType": "address",
          "name": "spender",
          "type": "address"
        },
        {
          "internalType": "uint256",
          "name": "subtractedValue",
          "type": "uint256"
        }
      ],
      "name": "decreaseAllowance",
      "outputs": [
        {
          "internalType": "bool",
          "name": "",
          "type": "bool"
        }
      ],
      "stateMutability": "nonpayable",
      "type": "function"
    },
    {
      "inputs": [
        {
          "internalType": "address",
          "name": "spender",
          "type": "address"
        },
        {
          "internalType": "uint256",
          "name": "addedValue",
          "type": "uint256"
        }
      ],
      "name": "increaseAllowance",
      "outputs": [
        {
          "internalType": "bool",
          "name": "",
          "type": "bool"
        }
      ],
      "stateMutability": "nonpayable",
      "type": "function"
    },
    {
      "inputs": [],
      "name": "maxSupply",
      "outputs": [
        {
          "internalType": "uint256",
          "name": "",
          "type": "uint256"
        }
      ],
      "stateMutability": "view",
      "type": "function"
    },
    {
      "inputs": [
        {
          "internalType": "uint256",
          "name": "amount",
          "type": "uint256"
        }
      ],
      "name": "mint",
      "outputs": [],
      "stateMutability": "payable",
      "type": "function"
    },
    {
      "inputs": [],
      "name": "name",
      "outputs": [
        {
          "internalType": "string",
          "name": "",
          "type": "string"
        }
      ],
      "stateMutability": "view",
      "type": "function"
    },
    {
      "inputs": [],
      "name": "owner",
      "outputs": [
        {
          "internalType": "address",
          "name": "",
          "type": "address"
        }
      ],
      "stateMutability": "view",
      "type": "function"
    },
    {
      "inputs": [],
      "name": "renounceOwnership",
      "outputs": [],
      "stateMutability": "nonpayable",
      "type": "function"
    },
    {
      "inputs": [],
      "name": "returnTokenomics",
      "outputs": [
        {
          "internalType": "uint256",
          "name": "_myBalance",
          "type": "uint256"
        },
        {
          "internalType": "uint256",
          "name": "_maxSupply",
          "type": "uint256"
        },
        {
          "internalType": "uint256",
          "name": "_totalSupply",
          "type": "uint256"
        },
        {
          "internalType": "uint256",
          "name": "_tokenPrice",
          "type": "uint256"
        }
      ],
      "stateMutability": "view",
      "type": "function"
    },
    {
      "inputs": [],
      "name": "symbol",
      "outputs": [
        {
          "internalType": "string",
          "name": "",
          "type": "string"
        }
      ],
      "stateMutability": "view",
      "type": "function"
    },
    {
      "inputs": [],
      "name": "tokenPrice",
      "outputs": [
        {
          "internalType": "uint256",
          "name": "",
          "type": "uint256"
        }
      ],
      "stateMutability": "view",
      "type": "function"
    },
    {
      "inputs": [],
      "name": "totalSupply",
      "outputs": [
        {
          "internalType": "uint256",
          "name": "",
          "type": "uint256"
        }
      ],
      "stateMutability": "view",
      "type": "function"
    },
    {
      "inputs": [
        {
          "internalType": "address",
          "name": "to",
          "type": "address"
        },
        {
          "internalType": "uint256",
          "name": "amount",
          "type": "uint256"
        }
      ],
      "name": "transfer",
      "outputs": [
        {
          "internalType": "bool",
          "name": "",
          "type": "bool"
        }
      ],
      "stateMutability": "nonpayable",
      "type": "function"
    },
    {
      "inputs": [
        {
          "internalType": "address",
          "name": "from",
          "type": "address"
        },
        {
          "internalType": "address",
          "name": "to",
          "type": "address"
        },
        {
          "internalType": "uint256",
          "name": "amount",
          "type": "uint256"
        }
      ],
      "name": "transferFrom",
      "outputs": [
        {
          "internalType": "bool",
          "name": "",
          "type": "bool"
        }
      ],
      "stateMutability": "nonpayable",
      "type": "function"
    },
    {
      "inputs": [
        {
          "internalType": "address",
          "name": "newOwner",
          "type": "address"
        }
      ],
      "name": "transferOwnership",
      "outputs": [],
      "stateMutability": "nonpayable",
      "type": "function"
    },
    {
      "inputs": [],
      "name": "withdrawEther",
      "outputs": [],
      "stateMutability": "nonpayable",
      "type": "function"
    }
  ],
  "bytecode": "0x60806040523480156200001157600080fd5b506040518060400160405280600881526020017f45434f546f6b656e0000000000000000000000000000000000000000000000008152506040518060400160405280600381526020017f45434f0000000000000000000000000000000000000000000000000000000000815250816003908051906020019062000096929190620001c4565b508060049080519060200190620000af929190620001c4565b505050620000d2620000c6620000f660201b60201c565b620000fe60201b60201c565b66038d7ea4c68000600681905550683635c9adc5dea00000600781905550620002d9565b600033905090565b6000600560009054906101000a900473ffffffffffffffffffffffffffffffffffffffff16905081600560006101000a81548173ffffffffffffffffffffffffffffffffffffffff021916908373ffffffffffffffffffffffffffffffffffffffff1602179055508173ffffffffffffffffffffffffffffffffffffffff168173ffffffffffffffffffffffffffffffffffffffff167f8be0079c531659141344cd1fd0a4f28419497f9722a3daafe3b4186f6b6457e060405160405180910390a35050565b828054620001d29062000274565b90600052602060002090601f016020900481019282620001f6576000855562000242565b82601f106200021157805160ff191683800117855562000242565b8280016001018555821562000242579182015b828111156200024157825182559160200191906001019062000224565b5b50905062000251919062000255565b5090565b5b808211156200027057600081600090555060010162000256565b5090565b600060028204905060018216806200028d57607f821691505b60208210811415620002a457620002a3620002aa565b5b50919050565b7f4e487b7100000000000000000000000000000000000000000000000000000000600052602260045260246000fd5b61219180620002e96000396000f3fe60806040526004361061012a5760003560e01c80637362377b116100ab578063a0712d681161006f578063a0712d68146103d3578063a457c2d7146103ef578063a9059cbb1461042c578063d5abeb0114610469578063dd62ed3e14610494578063f2fde38b146104d15761012a565b80637362377b1461031257806379cc6790146103295780637ff9b596146103525780638da5cb5b1461037d57806395d89b41146103a85761012a565b8063313ce567116100f2578063313ce5671461022d578063395093511461025857806342966c681461029557806370a08231146102be578063715018a6146102fb5761012a565b806304f54eb11461012f57806306fdde031461015d578063095ea7b31461018857806318160ddd146101c557806323b872dd146101f0575b600080fd5b34801561013b57600080fd5b506101446104fa565b6040516101549493929190611cc6565b60405180910390f35b34801561016957600080fd5b50610172610525565b60405161017f9190611ac9565b60405180910390f35b34801561019457600080fd5b506101af60048036038101906101aa91906114bd565b6105b7565b6040516101bc9190611aae565b60405180910390f35b3480156101d157600080fd5b506101da6105da565b6040516101e79190611cab565b60405180910390f35b3480156101fc57600080fd5b506102176004803603810190610212919061146e565b6105e4565b6040516102249190611aae565b60405180910390f35b34801561023957600080fd5b50610242610613565b60405161024f9190611d0b565b60405180910390f35b34801561026457600080fd5b5061027f600480360381019061027a91906114bd565b61061c565b60405161028c9190611aae565b60405180910390f35b3480156102a157600080fd5b506102bc60048036038101906102b791906114f9565b610653565b005b3480156102ca57600080fd5b506102e560048036038101906102e09190611409565b610667565b6040516102f29190611cab565b60405180910390f35b34801561030757600080fd5b506103106106af565b005b34801561031e57600080fd5b506103276106c3565b005b34801561033557600080fd5b50610350600480360381019061034b91906114bd565b61071b565b005b34801561035e57600080fd5b5061036761073b565b6040516103749190611cab565b60405180910390f35b34801561038957600080fd5b50610392610741565b60405161039f9190611a93565b60405180910390f35b3480156103b457600080fd5b506103bd61076b565b6040516103ca9190611ac9565b60405180910390f35b6103ed60048036038101906103e891906114f9565b6107fd565b005b3480156103fb57600080fd5b50610416600480360381019061041191906114bd565b6108cf565b6040516104239190611aae565b60405180910390f35b34801561043857600080fd5b50610453600480360381019061044e91906114bd565b610946565b6040516104609190611aae565b60405180910390f35b34801561047557600080fd5b5061047e610969565b60405161048b9190611cab565b60405180910390f35b3480156104a057600080fd5b506104bb60048036038101906104b69190611432565b61096f565b6040516104c89190611cab565b60405180910390f35b3480156104dd57600080fd5b506104f860048036038101906104f39190611409565b6109f6565b005b60008060008061050933610667565b6007546105146105da565b600654935093509350935090919293565b60606003805461053490612050565b80601f016020809104026020016040519081016040528092919081815260200182805461056090612050565b80156105ad5780601f10610582576101008083540402835291602001916105ad565b820191906000526020600020905b81548152906001019060200180831161059057829003601f168201915b5050505050905090565b6000806105c2610a7a565b90506105cf818585610a82565b600191505092915050565b6000600254905090565b6000806105ef610a7a565b90506105fc858285610c4d565b610607858585610cd9565b60019150509392505050565b60006012905090565b600080610627610a7a565b9050610648818585610639858961096f565b6106439190611d42565b610a82565b600191505092915050565b61066461065e610a7a565b82610f5a565b50565b60008060008373ffffffffffffffffffffffffffffffffffffffff1673ffffffffffffffffffffffffffffffffffffffff168152602001908152602001600020549050919050565b6106b7611131565b6106c160006111af565b565b6106cb611131565b6106d3610741565b73ffffffffffffffffffffffffffffffffffffffff166108fc479081150290604051600060405180830381858888f19350505050158015610718573d6000803e3d6000fd5b50565b61072d82610727610a7a565b83610c4d565b6107378282610f5a565b5050565b60065481565b6000600560009054906101000a900473ffffffffffffffffffffffffffffffffffffffff16905090565b60606004805461077a90612050565b80601f01602080910402602001604051908101604052809291908181526020018280546107a690612050565b80156107f35780601f106107c8576101008083540402835291602001916107f3565b820191906000526020600020905b8154815290600101906020018083116107d657829003601f168201915b5050505050905090565b600754816108096105da565b6108139190611d42565b1115610854576040517f08c379a000000000000000000000000000000000000000000000000000000000815260040161084b90611b0b565b60405180910390fd5b60065481610860610613565b600a61086c9190611e1c565b346108779190611f3a565b6108819190611d98565b10156108c2576040517f08c379a00000000000000000000000000000000000000000000000000000000081526004016108b990611b8b565b60405180910390fd5b6108cc3382611275565b50565b6000806108da610a7a565b905060006108e8828661096f565b90508381101561092d576040517f08c379a000000000000000000000000000000000000000000000000000000000815260040161092490611c6b565b60405180910390fd5b61093a8286868403610a82565b60019250505092915050565b600080610951610a7a565b905061095e818585610cd9565b600191505092915050565b60075481565b6000600160008473ffffffffffffffffffffffffffffffffffffffff1673ffffffffffffffffffffffffffffffffffffffff16815260200190815260200160002060008373ffffffffffffffffffffffffffffffffffffffff1673ffffffffffffffffffffffffffffffffffffffff16815260200190815260200160002054905092915050565b6109fe611131565b600073ffffffffffffffffffffffffffffffffffffffff168173ffffffffffffffffffffffffffffffffffffffff161415610a6e576040517f08c379a0000000000000000000000000000000000000000000000000000000008152600401610a6590611b4b565b60405180910390fd5b610a77816111af565b50565b600033905090565b600073ffffffffffffffffffffffffffffffffffffffff168373ffffffffffffffffffffffffffffffffffffffff161415610af2576040517f08c379a0000000000000000000000000000000000000000000000000000000008152600401610ae990611c4b565b60405180910390fd5b600073ffffffffffffffffffffffffffffffffffffffff168273ffffffffffffffffffffffffffffffffffffffff161415610b62576040517f08c379a0000000000000000000000000000000000000000000000000000000008152600401610b5990611b6b565b60405180910390fd5b80600160008573ffffffffffffffffffffffffffffffffffffffff1673ffffffffffffffffffffffffffffffffffffffff16815260200190815260200160002060008473ffffffffffffffffffffffffffffffffffffffff1673ffffffffffffffffffffffffffffffffffffffff168152602001908152602001600020819055508173ffffffffffffffffffffffffffffffffffffffff168373ffffffffffffffffffffffffffffffffffffffff167f8c5be1e5ebec7d5bd14f71427d1e84f3dd0314c0f7b2291e5b200ac8c7c3b92583604051610c409190611cab565b60405180910390a3505050565b6000610c59848461096f565b90507fffffffffffffffffffffffffffffffffffffffffffffffffffffffffffffffff8114610cd35781811015610cc5576040517f08c379a0000000000000000000000000000000000000000000000000000000008152600401610cbc90611bab565b60405180910390fd5b610cd28484848403610a82565b5b50505050565b600073ffffffffffffffffffffffffffffffffffffffff168373ffffffffffffffffffffffffffffffffffffffff161415610d49576040517f08c379a0000000000000000000000000000000000000000000000000000000008152600401610d4090611c2b565b60405180910390fd5b600073ffffffffffffffffffffffffffffffffffffffff168273ffffffffffffffffffffffffffffffffffffffff161415610db9576040517f08c379a0000000000000000000000000000000000000000000000000000000008152600401610db090611aeb565b60405180910390fd5b610dc48383836113d5565b60008060008573ffffffffffffffffffffffffffffffffffffffff1673ffffffffffffffffffffffffffffffffffffffff16815260200190815260200160002054905081811015610e4a576040517f08c379a0000000000000000000000000000000000000000000000000000000008152600401610e4190611bcb565b60405180910390fd5b8181036000808673ffffffffffffffffffffffffffffffffffffffff1673ffffffffffffffffffffffffffffffffffffffff16815260200190815260200160002081905550816000808573ffffffffffffffffffffffffffffffffffffffff1673ffffffffffffffffffffffffffffffffffffffff1681526020019081526020016000206000828254610edd9190611d42565b925050819055508273ffffffffffffffffffffffffffffffffffffffff168473ffffffffffffffffffffffffffffffffffffffff167fddf252ad1be2c89b69c2b068fc378daa952ba7f163c4a11628f55a4df523b3ef84604051610f419190611cab565b60405180910390a3610f548484846113da565b50505050565b600073ffffffffffffffffffffffffffffffffffffffff168273ffffffffffffffffffffffffffffffffffffffff161415610fca576040517f08c379a0000000000000000000000000000000000000000000000000000000008152600401610fc190611c0b565b60405180910390fd5b610fd6826000836113d5565b60008060008473ffffffffffffffffffffffffffffffffffffffff1673ffffffffffffffffffffffffffffffffffffffff1681526020019081526020016000205490508181101561105c576040517f08c379a000000000000000000000000000000000000000000000000000000000815260040161105390611b2b565b60405180910390fd5b8181036000808573ffffffffffffffffffffffffffffffffffffffff1673ffffffffffffffffffffffffffffffffffffffff1681526020019081526020016000208190555081600260008282546110b39190611f94565b92505081905550600073ffffffffffffffffffffffffffffffffffffffff168373ffffffffffffffffffffffffffffffffffffffff167fddf252ad1be2c89b69c2b068fc378daa952ba7f163c4a11628f55a4df523b3ef846040516111189190611cab565b60405180910390a361112c836000846113da565b505050565b611139610a7a565b73ffffffffffffffffffffffffffffffffffffffff16611157610741565b73ffffffffffffffffffffffffffffffffffffffff16146111ad576040517f08c379a00000000000000000000000000000000000000000000000000000000081526004016111a490611beb565b60405180910390fd5b565b6000600560009054906101000a900473ffffffffffffffffffffffffffffffffffffffff16905081600560006101000a81548173ffffffffffffffffffffffffffffffffffffffff021916908373ffffffffffffffffffffffffffffffffffffffff1602179055508173ffffffffffffffffffffffffffffffffffffffff168173ffffffffffffffffffffffffffffffffffffffff167f8be0079c531659141344cd1fd0a4f28419497f9722a3daafe3b4186f6b6457e060405160405180910390a35050565b600073ffffffffffffffffffffffffffffffffffffffff168273ffffffffffffffffffffffffffffffffffffffff1614156112e5576040517f08c379a00000000000000000000000000000000000000000000000000000000081526004016112dc90611c8b565b60405180910390fd5b6112f1600083836113d5565b80600260008282546113039190611d42565b92505081905550806000808473ffffffffffffffffffffffffffffffffffffffff1673ffffffffffffffffffffffffffffffffffffffff16815260200190815260200160002060008282546113589190611d42565b925050819055508173ffffffffffffffffffffffffffffffffffffffff16600073ffffffffffffffffffffffffffffffffffffffff167fddf252ad1be2c89b69c2b068fc378daa952ba7f163c4a11628f55a4df523b3ef836040516113bd9190611cab565b60405180910390a36113d1600083836113da565b5050565b505050565b505050565b6000813590506113ee8161212d565b92915050565b60008135905061140381612144565b92915050565b60006020828403121561141b57600080fd5b6000611429848285016113df565b91505092915050565b6000806040838503121561144557600080fd5b6000611453858286016113df565b9250506020611464858286016113df565b9150509250929050565b60008060006060848603121561148357600080fd5b6000611491868287016113df565b93505060206114a2868287016113df565b92505060406114b3868287016113f4565b9150509250925092565b600080604083850312156114d057600080fd5b60006114de858286016113df565b92505060206114ef858286016113f4565b9150509250929050565b60006020828403121561150b57600080fd5b6000611519848285016113f4565b91505092915050565b61152b81611fc8565b82525050565b61153a81611fda565b82525050565b600061154b82611d26565b6115558185611d31565b935061156581856020860161201d565b61156e8161210f565b840191505092915050565b6000611586602383611d31565b91507f45524332303a207472616e7366657220746f20746865207a65726f206164647260008301527f65737300000000000000000000000000000000000000000000000000000000006020830152604082019050919050565b60006115ec601383611d31565b91507f4d617820537570706c79204578636565646564000000000000000000000000006000830152602082019050919050565b600061162c602283611d31565b91507f45524332303a206275726e20616d6f756e7420657863656564732062616c616e60008301527f63650000000000000000000000000000000000000000000000000000000000006020830152604082019050919050565b6000611692602683611d31565b91507f4f776e61626c653a206e6577206f776e657220697320746865207a65726f206160008301527f64647265737300000000000000000000000000000000000000000000000000006020830152604082019050919050565b60006116f8602283611d31565b91507f45524332303a20617070726f766520746f20746865207a65726f20616464726560008301527f73730000000000000000000000000000000000000000000000000000000000006020830152604082019050919050565b600061175e603a83611d31565b91507f506179204574686572204163636f7264696e6720746f20546f6b656e2050726960008301527f636520692e6520302e312065746865722070657220746f6b656e0000000000006020830152604082019050919050565b60006117c4601d83611d31565b91507f45524332303a20696e73756666696369656e7420616c6c6f77616e63650000006000830152602082019050919050565b6000611804602683611d31565b91507f45524332303a207472616e7366657220616d6f756e742065786365656473206260008301527f616c616e636500000000000000000000000000000000000000000000000000006020830152604082019050919050565b600061186a602083611d31565b91507f4f776e61626c653a2063616c6c6572206973206e6f7420746865206f776e65726000830152602082019050919050565b60006118aa602183611d31565b91507f45524332303a206275726e2066726f6d20746865207a65726f2061646472657360008301527f73000000000000000000000000000000000000000000000000000000000000006020830152604082019050919050565b6000611910602583611d31565b91507f45524332303a207472616e736665722066726f6d20746865207a65726f20616460008301527f64726573730000000000000000000000000000000000000000000000000000006020830152604082019050919050565b6000611976602483611d31565b91507f45524332303a20617070726f76652066726f6d20746865207a65726f2061646460008301527f72657373000000000000000000000000000000000000000000000000000000006020830152604082019050919050565b60006119dc602583611d31565b91507f45524332303a2064656372656173656420616c6c6f77616e63652062656c6f7760008301527f207a65726f0000000000000000000000000000000000000000000000000000006020830152604082019050919050565b6000611a42601f83611d31565b91507f45524332303a206d696e7420746f20746865207a65726f2061646472657373006000830152602082019050919050565b611a7e81612006565b82525050565b611a8d81612010565b82525050565b6000602082019050611aa86000830184611522565b92915050565b6000602082019050611ac36000830184611531565b92915050565b60006020820190508181036000830152611ae38184611540565b905092915050565b60006020820190508181036000830152611b0481611579565b9050919050565b60006020820190508181036000830152611b24816115df565b9050919050565b60006020820190508181036000830152611b448161161f565b9050919050565b60006020820190508181036000830152611b6481611685565b9050919050565b60006020820190508181036000830152611b84816116eb565b9050919050565b60006020820190508181036000830152611ba481611751565b9050919050565b60006020820190508181036000830152611bc4816117b7565b9050919050565b60006020820190508181036000830152611be4816117f7565b9050919050565b60006020820190508181036000830152611c048161185d565b9050919050565b60006020820190508181036000830152611c248161189d565b9050919050565b60006020820190508181036000830152611c4481611903565b9050919050565b60006020820190508181036000830152611c6481611969565b9050919050565b60006020820190508181036000830152611c84816119cf565b9050919050565b60006020820190508181036000830152611ca481611a35565b9050919050565b6000602082019050611cc06000830184611a75565b92915050565b6000608082019050611cdb6000830187611a75565b611ce86020830186611a75565b611cf56040830185611a75565b611d026060830184611a75565b95945050505050565b6000602082019050611d206000830184611a84565b92915050565b600081519050919050565b600082825260208201905092915050565b6000611d4d82612006565b9150611d5883612006565b9250827fffffffffffffffffffffffffffffffffffffffffffffffffffffffffffffffff03821115611d8d57611d8c612082565b5b828201905092915050565b6000611da382612006565b9150611dae83612006565b925082611dbe57611dbd6120b1565b5b828204905092915050565b6000808291508390505b6001851115611e1357808604811115611def57611dee612082565b5b6001851615611dfe5780820291505b8081029050611e0c85612120565b9450611dd3565b94509492505050565b6000611e2782612006565b9150611e3283612010565b9250611e5f7fffffffffffffffffffffffffffffffffffffffffffffffffffffffffffffffff8484611e67565b905092915050565b600082611e775760019050611f33565b81611e855760009050611f33565b8160018114611e9b5760028114611ea557611ed4565b6001915050611f33565b60ff841115611eb757611eb6612082565b5b8360020a915084821115611ece57611ecd612082565b5b50611f33565b5060208310610133831016604e8410600b8410161715611f095782820a905083811115611f0457611f03612082565b5b611f33565b611f168484846001611dc9565b92509050818404811115611f2d57611f2c612082565b5b81810290505b9392505050565b6000611f4582612006565b9150611f5083612006565b9250817fffffffffffffffffffffffffffffffffffffffffffffffffffffffffffffffff0483118215151615611f8957611f88612082565b5b828202905092915050565b6000611f9f82612006565b9150611faa83612006565b925082821015611fbd57611fbc612082565b5b828203905092915050565b6000611fd382611fe6565b9050919050565b60008115159050919050565b600073ffffffffffffffffffffffffffffffffffffffff82169050919050565b6000819050919050565b600060ff82169050919050565b60005b8381101561203b578082015181840152602081019050612020565b8381111561204a576000848401525b50505050565b6000600282049050600182168061206857607f821691505b6020821081141561207c5761207b6120e0565b5b50919050565b7f4e487b7100000000000000000000000000000000000000000000000000000000600052601160045260246000fd5b7f4e487b7100000000000000000000000000000000000000000000000000000000600052601260045260246000fd5b7f4e487b7100000000000000000000000000000000000000000000000000000000600052602260045260246000fd5b6000601f19601f8301169050919050565b60008160011c9050919050565b61213681611fc8565b811461214157600080fd5b50565b61214d81612006565b811461215857600080fd5b5056fea2646970667358221220472f1d4dd2f459ac473404c656bcff2c273aad83bd2d7464441757f8f8fdc1a064736f6c63430008000033",
  "linkReferences": {},
  "deployedLinkReferences": {}
}